:100000000C945D000C9485000C9485000C94850084
:100010000C9485000C9485000C9485000C9485004C
:100020000C9485000C9485000C9485000C9485003C
:100030000C9485000C9485000C9485000C9485002C
:100040000C9494030C9485000C9462030C943C0370
:100050000C9485000C9485000C9485000C9485000C
:100060000C9485000C94850000000008000201003B
:100070000003040700000000000000000000000072
:10008000250028002B0000000000240027002A0083
:10009000040404040404040402020202020203032E
:1000A0000303030301020408102040800102040836
:1000B00010200102040810200F0611241FBECFEFEC
:1000C000D8E0DEBFCDBF11E0A0E0B1E0E0E4FDE0AC
:1000D00002C005900D92A836B107D9F723E0A8E633
:1000E000B1E001C01D92AE36B207E1F710E0CDE5F8
:1000F000D0E004C02197FE010E948406CC35D107D0
:10010000C9F70E94DE030C949E060C94000080E464
:1001100080937C0080917A00806480937A00809143
:100120007A0086FDFCCF809178002091790090E0E4
:10013000922B089590E0FC01EC55FF4F2491FC01B7
:10014000E057FF4F8491882399F090E0880F991F22
:10015000FC01EA57FF4FA591B491FC01E458FF4F11
:10016000859194918FB7F894EC91E22BEC938FBF2B
:100170000895CF92DF92EF92FF920F931F93CF9348
:10018000DF936C017A018B01C0E0D0E0CE15DF0572
:1001900089F0D8016D918D01D601ED91FC9101900E
:1001A000F081E02DC6010995892B11F47E0102C072
:1001B0002196ECCFC701DF91CF911F910F91FF9056
:1001C000EF90DF90CF900895089580E090E008953B
:1001D000FC01538D448D252F30E0842F90E0821B4D
:1001E000930B541710F0CF96089501970895FC01D2
:1001F000918D828D981761F0828DDF01A80FB11D5E
:100200005D968C91928D9F5F9F73928F90E0089581
:100210008FEF9FEF0895FC01918D828D981731F03B
:10022000828DE80FF11D858D90E008958FEF9FEF8F
:100230000895FC01918D228D892F90E0805C9F4F65
:10024000821B91098F739927089581ED92E00E9496
:10025000190121E0892B09F420E0822F0895FC0187
:10026000848DDF01A80FB11DA35ABF4F2C91848D3F
:1002700090E001968F739927848FA689B7892C9374
:10028000A089B1898C9180648C93938D848D98130F
:1002900006C00288F389E02D80818F7D80830895D8
:1002A000EF92FF920F931F93CF93DF93EC0181E0C6
:1002B000888F9B8D8C8D981305C0E889F989808182
:1002C00085FD24C0F62E0B8D10E00F5F1F4F0F73BE
:1002D0001127E02E8C8DE8120CC00FB607FCFACF68
:1002E000E889F989808185FFF5CFCE010E942F0131
:1002F000F1CF8B8DFE01E80FF11DE35AFF4FF08225
:100300000B8FEA89FB898081806207C0EE89FF89B3
:100310006083E889F98980818064808381E090E04E
:10032000DF91CF911F910F91FF90EF900895CF93A0
:10033000DF93EC01888D8823C9F0EA89FB898081ED
:1003400085FD05C0A889B9898C9186FD0FC00FB6BF
:1003500007FCF5CF808185FFF2CFA889B9898C9100
:1003600085FFEDCFCE010E942F01E7CFDF91CF9126
:10037000089580E090E0892B29F00E9425018111E9
:100380000C940000089590E0FC01E859FF4F34916F
:10039000FC01EC55FF4F2491FC01E057FF4FE49125
:1003A000EE2309F43BC0332339F1333091F038F4B4
:1003B0003130A9F0323001F584B58F7D12C037306D
:1003C00091F03830A1F03430B9F4809180008F7D05
:1003D00003C0809180008F77809380000DC084B52A
:1003E0008F7784BD09C08091B0008F7703C0809162
:1003F000B0008F7D8093B000F0E0EE0FFF1FE45857
:10040000FF4FA591B4918FB7F894EC91611103C09F
:1004100020952E2301C02E2B2C938FBF08951F9360
:10042000CF93DF93182FEB010E949A00209711F4CD
:1004300060E004C0CF3FD10539F461E0812FDF9146
:10044000CF911F910C94C301E12FF0E0E859FF4FC9
:10045000E491E330F9F048F4E130B9F0E230A1F58D
:1004600084B5806284BDC8BD34C0E730E9F0E830AF
:1004700019F1E43049F5809180008062809380001A
:10048000D0938B00C0938A0024C084B5806884BD5B
:10049000C7BD1FC080918000806880938000D0938A
:1004A0008900C093880015C08091B0008068809357
:1004B000B000C093B3000DC08091B0008062809303
:1004C000B000C093B40005C0C038D1050CF0B5CF62
:1004D000AFCFDF91CF911F9108953FB7F8948091EE
:1004E0006D0190916E01A0916F01B091700126B5E0
:1004F000A89B05C02F3F19F00196A11DB11D3FBF5C
:10050000BA2FA92F982F8827820F911DA11DB11DE9
:10051000BC01CD0142E0660F771F881F991F4A95E5
:10052000D1F708958F929F92AF92BF92CF92DF92B0
:10053000EF92FF926B017C010E946D024B015C0106
:10054000C114D104E104F104F1F00E946D02DC0158
:10055000CB0188199909AA09BB09883E9340A105D6
:10056000B10570F321E0C21AD108E108F10888EE64
:10057000880E83E0981EA11CB11CC114D104E104B3
:10058000F10419F7DDCFFF90EF90DF90CF90BF908F
:10059000AF909F908F90089560E087E00E94C30124
:1005A00060E088E00E94C30160E070E089E00C94A4
:1005B0000F02009769F0FC0101900020E9F73197E4
:1005C000AF01481B590BBC0181ED92E00C94B900BE
:1005D00080E090E00895CF93DF930E94D902EC0170
:1005E00084E191E00E94D9028C0F9D1FDF91CF9191
:1005F00008958F929F92AF92BF920F931F93CF93C4
:10060000DF93CDB7DEB7A1970FB6F894DEBF0FBE6C
:10061000CDBF19A2423008F44AE08E010F5D1F4F92
:10062000842E912CA12CB12CA50194010E943C0692
:10063000E62FB901CA0101501109EA3014F4E05D56
:1006400001C0E95CD801EC93232B242B252B61F707
:10065000C8010E94D902A1960FB6F894DEBF0FBE62
:10066000CDBFDF91CF911F910F91BF90AF909F9021
:100670008F9008950E9499061F920F920FB60F92C5
:1006800011242F933F934F935F936F937F938F9397
:100690009F93AF93BF93EF93FF9381ED92E00E94FE
:1006A0002F01FF91EF91BF91AF919F918F917F911A
:1006B0006F915F914F913F912F910F900FBE0F90CF
:1006C0001F9018951F920F920FB60F9211242F931F
:1006D0008F939F93EF93FF93E091E102F091E202F9
:1006E0008081E091E702F091E80282FD12C09081E2
:1006F0008091EA028F5F8F732091EB02821751F095
:10070000E091EA02F0E0EF52FD4F958F8093EA020C
:1007100001C08081FF91EF919F918F912F910F9058
:100720000FBE0F901F9018951F920F920FB60F9249
:1007300011242F933F938F939F93AF93BF938091F7
:10074000690190916A01A0916B01B0916C013091A7
:10075000680123E0230F2D3720F40196A11DB11D60
:1007600005C026E8230F0296A11DB11D2093680144
:100770008093690190936A01A0936B01B0936C011F
:1007800080916D0190916E01A0916F01B091700107
:100790000196A11DB11D80936D0190936E01A093F0
:1007A0006F01B0937001BF91AF919F918F913F9175
:1007B0002F910F900FBE0F901F901895789484B5CD
:1007C000826084BD84B5816084BD85B5826085BD4D
:1007D00085B5816085BD80916E00816080936E00DB
:1007E00010928100809181008260809381008091CD
:1007F000810081608093810080918000816080937E
:1008000080008091B10084608093B1008091B0003D
:1008100081608093B00080917A00846080937A0038
:1008200080917A00826080937A0080917A00816062
:1008300080937A0080917A00806880937A00109289
:10084000C10089E00E949A0089E00E949A0085E038
:100850000E949A0086E00E949A0088E00E949A0016
:1008600087E00E949A00E091E102F091E20282E0CA
:100870008083E091DD02F091DE021082E091DF02E0
:10088000F091E0028FEC80831092E902E091E502A2
:10089000F091E60286E08083E091E302F091E402C9
:1008A000808180618083E091E302F091E4028081A5
:1008B00088608083E091E302F091E40280818068A7
:1008C0008083E091E302F091E40280818F7D808358
:1008D0000E948700EC0161E087E00E94C30160E0B4
:1008E00088E00E94C30162E370E089E00E940F0289
:1008F00064E670E080E090E00E94920260E070E0C8
:1009000089E00E940F020E9487008C179D074CF41B
:1009100088E090E09093C9028093C80287E090E05D
:1009200008C087E090E09093C9028093C80288E0F5
:1009300090E09093C7028093C60287E191E00E9405
:10094000EB020E9487009093CB028093CA0286E25A
:1009500091E00E94EB020E946D026B017093A30272
:100960006093A20209E312E041E7E42E41E0F42E95
:10097000C0E0D0E00E946D024B015C017093A102C7
:100980006093A0020E94870080939F028C189D08AC
:1009900090929E0280929D02F801C1938F01F7010F
:1009A000C193D1937F01F1E28F16FEE49F0620F000
:1009B0000E94CC0280E001C081E021968111DACF53
:1009C00085E391E00E94EB0202E310E0CE01880F84
:1009D000991F9C012F583E4F7901C75CDD4FF701ED
:1009E0006081718180E090E04AE00E94F90281E438
:1009F00091E00E94D902688170E080E090E04AE0D6
:100A00000E94F90284E191E00E94D902015011098B
:100A100031F783E491E00E94EB021AE088EE282E81
:100A200083E0382E92E0892E99249A94A92CB92C2F
:100A30002EEF422E512C612C712C81ED92E00E9400
:100A4000190118161906F4F41092D0021092CF0270
:100A500081ED92E00E94F7008093CE028A3091F0FF
:100A60009927C0974091CF025091D002149F9001D6
:100A7000159F300D1124820F931F9093D002809305
:100A8000CF02E6CFC091CF02D091D002209709F4D7
:100A90008AC00E9487009093010180930001EAEBD5
:100AA000F2E0329122913383228322E0E83AF20786
:100AB000C1F7DE01A81BB90BB093A902A093A8024D
:100AC00028EC30E040E050E02093C2023093C302B3
:100AD0004093C4025093C5021092C1021092C0020A
:100AE0001092BF021092BE023092BD022092BC0250
:100AF0000E947D0628EE33E040E050E00E945E0652
:100B00002E3F3105410551054CF42093A40230934A
:100B1000A5024093A6025093A70208C04092A402E7
:100B20005092A5026092A6027092A7028091A40240
:100B30009091A502A091A602B091A70283309F4F89
:100B4000AF4FBF4F44F48092A4029092A502A092AE
:100B5000A602B092A702C091A402D091A502D093A0
:100B6000CD02C093CC02D7FF0FC060E08091C802D5
:100B70000E94C30161E08091C6020E94C301662702
:100B800077276C1B7D0B0BC061E08091C8020E942F
:100B9000C30160E08091C6020E94C301BE0189E0EA
:100BA0000E940F0202C00E94CC020E948700909314
:100BB000CB028093CA0287E591E00E94D90260913E
:100BC000CA027091CB026B01770FEE08FF08F7FEA7
:100BD00014C0E091D102F091D2020190F081E02D99
:100BE0006DE281ED92E0099566277727CB016C19BC
:100BF0007D098E099F094AE003C04AE0C701B6019A
:100C00000E94F90284E191E00E94D90268EE73E04B
:100C100080E090E00E9492020E94B9010ECFE1EDC7
:100C2000F2E01382128288EE93E0A0E0B0E08483C9
:100C30009583A683B78386E091E09183808385ECDA
:100C400090E09587848784EC90E09787868780EC96
:100C500090E0918B808B81EC90E0938B828B82EC87
:100C600090E0958B848B86EC90E0978B868B118E31
:100C7000128E138E148E0895A1E21A2EAA1BBB1B8E
:100C8000FD010DC0AA1FBB1FEE1FFF1FA217B30758
:100C9000E407F50720F0A21BB30BE40BF50B661F6E
:100CA000771F881F991F1A9469F760957095809532
:100CB00090959B01AC01BD01CF010895052E97FBD6
:100CC0001EF400940E94750657FD07D00E943C0652
:100CD00007FC03D04EF40C94750650954095309562
:100CE00021953F4F4F4F5F4F089590958095709598
:100CF00061957F4F8F4F9F4F08950E948A06B7FFDF
:100D00000895821B930B0895EE0FFF1F0590F49139
:100D1000E02D0994A29FB001B39FC001A39F700D65
:100D2000811D1124911DB29F700D811D1124911DF3
:100D3000089581E090E0F8940C949E06F894FFCF1B
:100D4000F401000000005001B900E800970119010A
:100D5000F7000B010D0A0054657374696E67207308
:100D60006572766F2E0054657374696E67207061CA
:100D700072616D7300506172616D7320646F6E6596
:100D8000002C0054657374696E6720736572766F0A
:100D900020646F6E652E0073656E736F72207661CE
:080DA0006C7565203D20000088
:107800000C94343C0C94513C0C94513C0C94513CE1
:107810000C94513C0C94513C0C94513C0C94513CB4
:107820000C94513C0C94513C0C94513C0C94513CA4
:107830000C94513C0C94513C0C94513C0C94513C94
:107840000C94513C0C94513C0C94513C0C94513C84
:107850000C94513C0C94513C0C94513C0C94513C74
:107860000C94513C0C94513C11241FBECFEFD8E036
:10787000DEBFCDBF11E0A0E0B1E0ECE9FFE702C060
:1078800005900D92A230B107D9F712E0A2E0B1E065
:1078900001C01D92AD30B107E1F70E942D3D0C945F
:1078A000CC3F0C94003C982F959595959595959582
:1078B000905D8F708A307CF0282F295A8091C0000B
:1078C00085FFFCCF9093C6008091C00085FFFCCF60
:1078D0002093C6000895282F205DF0CF982F809127
:1078E000C00085FFFCCF9093C6000895EF92FF92F1
:1078F0000F931F93EE24FF2487018091C00087FD22
:1079000017C00894E11CF11C011D111D81E4E8164B
:1079100082E4F8068FE0080780E0180770F3E09132
:107920000401F091050109958091C00087FFE9CF1E
:107930008091C6001F910F91FF90EF9008950E94D3
:10794000763C982F8091C00085FFFCCF9093C600B5
:1079500091362CF490330CF09053892F089597555D
:10796000892F08951F930E949F3C182F0E949F3CCF
:107970001295107F810F1F9108951F93182F882350
:1079800021F00E94763C1150E1F71F9108951F935A
:10799000182F0E94763C803249F0809103018F5F5E
:1079A000809303018530C1F01F9108958091C0003C
:1079B00085FFFCCF84E18093C6008091C00085FFE5
:1079C000FCCF1093C6008091C00085FFFCCF80E102
:1079D0008093C6001F910895E0910401F091050184
:1079E00009951F9108950E94763C803241F0809164
:1079F00003018F5F80930301853081F008958091AA
:107A0000C00085FFFCCF84E18093C6008091C00058
:107A100085FFFCCF80E18093C6000895E0910401CA
:107A2000F09105010995089540E951E08823A1F0FE
:107A30002D9A28EE33E0FA013197F1F721503040CA
:107A4000D1F72D9828EE33E0FA013197F1F7215064
:107A50003040D1F7815061F708953F924F925F9285
:107A60006F927F928F929F92AF92BF92CF92DF924E
:107A7000EF92FF920F931F93CF93DF93000080E16B
:107A80008093C4001092C50088E18093C10086E015
:107A90008093C2005098589A259A81E00E94143D24
:107AA00024E1F22E9EE1E92E85E9D82E0FE0C02ECA
:107AB00010E1B12EAA24A394B1E49B2EA6E58A2E50
:107AC000F2E57F2EE0E26E2E79E4572E63E5462E36
:107AD00050E5352E0E94763C8033B1F18133B9F107
:107AE000803409F46FC0813409F476C0823409F41B
:107AF00085C0853409F488C0803531F1823521F1A3
:107B0000813511F1853509F485C0863509F48DC0BC
:107B1000843609F496C0843709F403C1853709F423
:107B200072C1863709F466C0809103018F5F80932C
:107B30000301853079F6E0910401F0910501099582
:107B40000E94763C803351F60E94F33CC3CF0E94E2
:107B5000763C803249F78091C00085FFFCCFF092DF
:107B6000C6008091C00085FFFCCF9092C600809136
:107B7000C00085FFFCCF8092C6008091C00085FFC9
:107B8000FCCF7092C6008091C00085FFFCCF609250
:107B9000C6008091C00085FFFCCF5092C600809146
:107BA000C00085FFFCCF4092C6008091C00085FFD9
:107BB000FCCF3092C6008091C00085FFFCCFB09210
:107BC000C60088CF0E94763C863808F4BDCF0E945C
:107BD000763C0E94F33C7ECF0E94763C803809F4CC
:107BE0009CC0813809F40BC1823809F43CC1883942
:107BF00009F48FC080E00E94C73C6CCF84E10E94F2
:107C0000BD3C0E94F33C66CF85E00E94BD3C0E94D3
:107C1000F33C60CF0E94763C809306010E94763C44
:107C2000809307010E94F33C55CF0E94763C80333D
:107C300009F41DC183E00E94BD3C80E00E94C73C66
:107C400049CF0E94763C809309020E94763C809343
:107C5000080280910C028E7F80930C020E94763C79
:107C6000853409F415C18091080290910902892B8D
:107C700089F000E010E00E94763CF801E85FFE4FDA
:107C800080830F5F1F4F80910802909109020817AF
:107C9000190788F30E94763C803209F045CF809125
:107CA0000C0280FF01C16091060170910701660F0F
:107CB000771F7093070160930601A0910802B091AD
:107CC00009021097C9F0E8E0F1E09B01AD014E0F09
:107CD0005F1FF999FECF32BD21BD819180BDFA9A17
:107CE000F99A2F5F3F4FE417F50799F76A0F7B1F4B
:107CF00070930701609306018091C00085FFFCCF5F
:107D0000F092C6008091C00085FFFCCFB092C60003
:107D1000E1CE83E00E94C73CDDCE82E00E94C73CFA
:107D2000D9CE0E94763C809309020E94763C8093D3
:107D300008028091060190910701880F991F909386
:107D40000701809306010E94763C853409F4A6C0A1
:107D500080910C028E7F80930C020E94763C8032D0
:107D600009F0B8CE8091C00085FFFCCFF092C6002C
:107D7000609108027091090261157105B9F140E046
:107D800050E080910C02A82FA170B82FB27011C0E2
:107D9000BB2309F45CC0E0910601F0910701319624
:107DA000F0930701E09306014F5F5F4F46175707B7
:107DB000E8F4AA2369F3F999FECF209106013091E6
:107DC000070132BD21BDF89A90B58091C00085FFB2
:107DD000FCCF9093C6002F5F3F4F30930701209355
:107DE00006014F5F5F4F4617570718F38091C00099
:107DF00085FDE5CE8091C00085FFF8CFE0CE81E023
:107E00000E94C73C67CE0E94763C803209F08CCE3F
:107E10008091C00085FFFCCFF092C6008091C00029
:107E200085FFFCCFE092C6008091C00085FFFCCFAB
:107E3000D092C6008091C00085FFFCCFC092C600E2
:107E40008091C00085FFFCCFB092C60043CEE09188
:107E50000601F091070194918091C00085FFFCCF4D
:107E60009093C6009CCF80E10E94C73C33CE0E9415
:107E7000763C0E94763C182F0E94763C112309F430
:107E800083C0113009F484C08FE00E94C73C22CE29
:107E900080910C02816080930C02E5CE80910C02EF
:107EA000816080930C0259CF809107018823880F4D
:107EB000880B8A2180930B02809106019091070123
:107EC000880F991F90930701809306018091080203
:107ED00080FF09C080910802909109020196909359
:107EE000090280930802F894F999FECF1127E091D6
:107EF0000601F0910701C8E0D1E08091080290915D
:107F00000902103091F40091570001700130D9F34B
:107F100003E000935700E89500915700017001308D
:107F2000D9F301E100935700E89509901990009169
:107F3000570001700130D9F301E000935700E89534
:107F40001395103498F011270091570001700130FB
:107F5000D9F305E000935700E895009157000170B0
:107F60000130D9F301E100935700E895329602976A
:107F700009F0C7CF103011F00296E5CF112480919F
:107F8000C00085FFB9CEBCCE8EE10E94C73CA2CD19
:0C7F900085E90E94C73C9ECDF894FFCF0D
:027F9C00800063
:040000030000780081
:00000001FF